:020000040800F2
:1000000000640024A5030008CD8E00085783000873
:10001000C98E0008D504000815B0000800000000D3
:10002000000000000000000000000000E5020008E1
:10003000EF0700080000000041030008F3930008E8
:10004000BF030008BF030008BF030008BF03000888
:10005000BF030008BF030008BF030008BF03000878
:10006000BF030008BF030008BF030008D90400084D
:10007000E9040008BF030008BF030008BF0300082D
:10008000BF030008BF030008BF030008750800088D
:10009000E5080008BF030008BF030008BF0300080D
:1000A000BF030008BF030008BF030008BF03000828
:1000B000B5950008BF030008BF030008BF03000890
:1000C000BF030008BF030008BF030008BF03000808
:1000D000CD920008B1AB0008C1AB0008BF03000817
:1000E000F1070008BF03000800000000BF0300087C
:1000F000BF030008BF030008BF030008BF030008D8
:10010000BF030008BF030008BF030008BF030008C7
:10011000BF0300088D9A0008BF030008BF03000852
:10012000BF030008BF030008BF030008BF030008A7
:10013000BF030008BF030008BF030008BF03000897
:1001400000000000000000000000000000000000AF
:10015000BF030008BF030008BF030008BF03000877
:10016000BF030008BF030008BF030008BF03000867
:10017000BF030008BF030008BF0300080000000021
:10018000BF030008BF030008BF030008BF03000847
:10019000BF030008BF030008BF030008BF03000837
:1001A000BF030008BF030008BF03000800000000F1
:1001B000BF030008BF030008BF030008BF03000817
:1001C000BF030008BF03000800000000000000009B
:1001D0000000000000000000BF0300080000000055
:1001E000000000000000000000000000000000000F
:1001F0000000000000000000BF030008BF0300086B
:10020000BF030008BF03000800000000BF03000890
:10021000BF030008BF030008BF030008BF030008B6
:10022000BF03000800000000BF030008000000003A
:10023000BF030008BF03000800000000BF03000860
:10024000BF030008BF030008BF030008BF03000886
:10025000BF030008BF030008BF030008BF03000876
:10026000BF030008BF030008BF030008BF03000866
:10027000BF030008BF030008BF0300080000000020
:10028000BF030008BF030008BF030008BF03000846
:1002900000000000BF030008BF03000800000000CA
:1002A00000000000BF030008BF030008BF030008F0
:1002B000BF030008BF030008BF030008BF03000816
:1002C000BF030008BF030008BF030008DFF810D019
:1002D00000F0EEF80048004739B60008AFF30080A0
:1002E000006400242C4B19680868B0E8F04F80F3D4
:1002F0000988BFF36F8F4FF0000080F311887047BB
:100300000000000008480068006880F308884FF08B
:10031000000080F3148862B661B6BFF34F8FBFF35D
:100320006F8F00DF00BF00BF08ED00E0DFF80C00BA
:10033000016841F470010160704700BF88ED00E082
:10034000EFF30980BFF36F8F134B1A681EF0100F85
:1003500008BF20ED108A20E9F04F106009B44FF07B
:10036000500080F31188BFF34F8FBFF36F8F0CF0F5
:10037000E1FD4FF0000080F3118809BC196808689E
:10038000B0E8F04F1EF0100F08BFB0EC108A80F3F9
:100390000988BFF36F8F704700000024EFF30580DA
:1003A000704700000648804706480047FEE7FEE722
:1003B000FEE7FEE7FEE7FEE7FEE7FEE7FEE7FEE715
:1003C000D5940008CD0200082DE9F05F0546002015
:1003D00092469B4688460646814640241BE02846B6
:1003E00041464746224600F053F853465A46C01A43
:1003F000914110D311461846224600F03AF82D1AC2
:1004000067EB01084F4622460120002100F031F839
:1004100017EB00094E41201EA4F10104DFDC484621
:1004200031462A464346BDE8F09F40EA01039B0758
:1004300003D009E008C9121F08C0042AFAD203E059
:1004400011F8013B00F8013B521EF9D27047D2B2BD
:1004500001E000F8012B491EFBD270470022F6E7AD
:1004600010B513460A4604461946FFF7F0FF20462A
:1004700010BD202A04DB203A00FA02F10020704768
:100480009140C2F1200320FA03F3194390407047D2
:10049000202A04DB203A21FA02F00021704721FAD9
:1004A00002F3D040C2F12002914008431946704740
:1004B000064C074D06E0E06840F0010394E80700B1
:1004C00098471034AC42F6D3FFF704FF4CDF000826
:1004D0006CDF000800BFFEE710B5024801F0BEF86F
:1004E00010BD00004052002410B5024801F0B6F8DB
:1004F00010BD0000B85200240146374A08689042F7
:1005000049D0354A18320868904244D0324A3032D5
:10051000086890423FD0304A4832086890423AD04A
:100520002D4A60320868904235D02B4A78320868EC
:10053000904230D0284A9032086890422BD0264A08
:10054000A8320868904226D0244A0868904222D0F7
:10055000224A1832086890421DD0204A303208687A
:10056000904218D01D4A48320868904213D01B4A66
:100570006032086890420ED0184A7832086890427B
:1005800009D0164A90320868904204D0134AA83223
:100590000868904201D1012000E00020B0B10A7843
:1005A000103A1823B2FBF3F000F007020C4B9A5CF0
:1005B000CA65032805D90A686FF30902121D8A6506
:1005C00003E00A686FF309028A6503E0086820F017
:1005D000FF008865886D70471000024010040240DB
:1005E00058DE000810B502682B4C0368A34222D0E5
:1005F000294C14340368A3421DD0274C28340368C7
:10060000A34218D0244C3C340368A34213D0224C9C
:1006100050340368A3420ED01F4C64340368A342D5
:1006200009D01D4C78340368A34204D01A4C8C3492
:100630000368A34201D1012300E000238BB10378BA
:10064000083B1424B3FBF4F1144B03EB8103036662
:10065000124B8033436601F01F040123A3408366DD
:1006600018E00378103B1824B3FBF4F10C4B9A42CA
:1006700004D80B4BA83B9A4200D30831094B03EB3B
:1006800081030366074B8033436601F01F04012397
:10069000A340836610BD0000085402580058025859
:1006A000B8040240000802400179A9B3082940D8E3
:1006B000204B02689A4222D01E4B143302689A42A1
:1006C0001DD01C4B283302689A4218D0194B3C337A
:1006D00002689A4213D0174B503302689A420ED0E8
:1006E000144B643302689A4209D0124B7833026883
:1006F0009A4204D00F4B8C3302689A4201D10122F6
:1007000000E000224AB14A1E0B4B03EB8202C26694
:10071000094A4032026708E00BE04A1E074B03EB30
:100720008202C266054A403202674A1E0123934094
:1007300043677047085402580059025800090240A4
:10074000014600208A69D2B98A6A32B1012A0DD0E5
:10075000022A03D0032A10D10EE000BFCA6A02F0B9
:100760008072B2F1807F00D1012007E0CA6AB2F145
:10077000C07F00D1012001E000E000BF36E08A69BF
:10078000B2F5005F1BD18A6A32B1012A07D0022A72
:1007900003D0032A11D10AE000BF01200EE0CA6A8B
:1007A00002F08072B2F1807F00D1012006E0CA6AB7
:1007B000B2F1C07F00D1012000E000BF16E08A6ADC
:1007C00032B1012A05D0022A04D0032A0CD103E059
:1007D00000BF00BF012008E0CA6A02F08072B2F1D7
:1007E000807F00D1012000E000BF00BF704770474C
:1007F00010B54FF4806002F0DBFE4FF4805002F041
:10080000D7FE4FF4004002F0D3FE10BD72B600BF19
:10081000FEE7000000B589B00020019002900220A0
:1008200003900120049000200590069001A9104833
:1008300001F0CBFF08B1FFF7E9FF002003460222D9
:10084000114600900A4802F014F808B1FFF7DEFFE5
:1008500000220121064801F01BFF08B1FFF7D6FF77
:10086000034802F05FFE08B1FFF7D0FF09B000BDFA
:10087000A04E002410B5024802F014F910BD00008B
:10088000A04E002400B589B0002001900120029004
:1008900002200390049000200590069001A91048C2
:1008A00001F093FF08B1FFF7B1FF002003460222D9
:1008B000114600900A4801F0DCFF08B1FFF7A6FFDF
:1008C00000225021064801F0E3FE08B1FFF79EFF29
:1008D000034802F027FE08B1FFF798FF09B000BDFA
:1008E000404F002410B5024802F0DCF810BD0000B3
:1008F000404F002410B501464A6B0868D0F88400C8
:100900004FF6FC74A04340EA82000C68C4F88400EF
:100910000868D0F8840020F47F04088F44EA00407F
:100920000C68C4F88400886B02440868D0F888001A
:100930004FF6FC74A04340EA82000C68C4F88800BB
:100940000868D0F8880020F4FE04888F44EA00404C
:100950000C68C4F88800C86B02EB40020868D0F845
:10096000A0004FF6FC74A04340EA82000C68C4F873
:10097000A0000868D0F8A00020F4FE044020405AEF
:1009800044EA00400C68C4F8A000D1E9104004FB20
:1009900000220868D0F8B0004FF6FC74A04340EA8B
:1009A00082000C68C4F8B0000868D0F8B00020F4E9
:1009B000FE04B1F8480044EA00400C68C4F8B000F6
:1009C000D1E9124004FB00220868D0F8AC004FF6D1
:1009D000FC74A04340EA82000C68C4F8AC00D1E982
:1009E000144004FB00220868D0F8F0004FF6FC74B5
:1009F000A04340EA82000C68C4F8F0000868D0F810
:100A0000F00020F47C14B1F8580044EA00400C686F
:100A1000C4F8F000886D02EB40020868D0F8C0000E
:100A20004FF6FC74A04340EA82000C68C4F8C00092
:100A30000868D0F8C00020F47C14B1F85C0044EAE7
:100A400000400C68C4F8C0000868D0F8C00020F06E
:100A50007C5491F8600044EA00600C68C4F8C0005F
:100A60002A4C486B04EB8000C866CC6E886B04EBA4
:100A700080040C670C6FC86B04EBC0044C67D1E9B1
:100A8000100460434C6F04EB80048C67D1E91204BE
:100A900060438C6F04EB8004CC67D1E9140460439D
:100AA000CC6F04EB8004802044504458886D04EBE4
:100AB000C004842044508C6EC86D60438424645804
:100AC00004EB8004882044508C6E086E60438824B8
:100AD000645804EB80049020445040580C4CA042D1
:100AE00009D99831486840F020004860032001F897
:100AF0009809012010BDCB6E02E0002018601B1D7C
:100B0000902040589842F8D80020F3E700AC00400D
:100B1000FCD300402DE9F041054614461E46D1F8AD
:100B200004C0BCF1000F0AD1D1F810C0D1F8088080
:100B30004CEA080CB1F800804CEA88430BE0D1F88D
:100B400010C04CF0804CD1F808804CEA080CD1F869
:100B500000804CEA080391F82080D1F81CC04CEAD0
:100B6000086CD1F818804CEA080CD1F814804CEAD3
:100B7000080CD1F80C804CEA0807D5F868C00CFBCB
:100B800006FCD5F8848008EB8C021360121D1760F8
:100B9000121D002019E000F1030C14F80CC04FEAFC
:100BA0000C6800F1020C14F80CC048EA0C4800F183
:100BB000010C14F80CC048EA0C2C14F800804CEA24
:100BC000080CC2F800C0121D001DDFF81880D1F813
:100BD0000CC008EB1C4C9CF800C08445DBD8BDE879
:100BE000F081000060DE000810B504460CB9012059
:100BF00010BD94F8350010B9204600F045F80220E9
:100C000084F83500A06908B100216162206800689D
:100C10001C49084021680860616960680843E16810
:100C2000084321690843A1680843A1690843216A70
:100C30000843616A0843A16A0843E16A0843216BDB
:100C40000843216809680843216808606068102823
:100C50000BD1217F607F41EA0021A07F41EA004162
:100C6000E07F41EA0060216888612068C06840F048
:100C70001E002168C8600020E064012084F835006F
:100C80000020B5E707F0E0FF10B586B00446142158
:100C900001A8FFF7E3FB4D49206888427ED100BFE1
:100CA0004B48006840F00100494908600846006868
:100CB00000F00100009000BF00BF00BF081D0068E9
:100CC00040F01000091D08600846006800F01000A0
:100CD000009000BF00BF00BF0846006840F0010060
:100CE00008600846006800F00100009000BF00BFE7
:100CF00000BF0846006840F004000860084600682D
:100D000000F00400009000BF00BF00BF084600686C
:100D100040F0080008600846006800F008000090F5
:100D200000BF00BF00BF0846006840F00200086036
:100D30000846006800F00200009000BF00BF70206D
:100D40000190022002900020039004900D20059055
:100D500001A9204802F03AFC5020019002200290A4
:100D60000020039004900D20059001A91A4802F07C
:100D70002DFC4FF47070019002200290002003902F
:100D800004900D20059001A9144802F01FFC0820D2
:100D90000190022002900020039000E013E00490F4
:100DA0000D20059001A90E4802F010FC8020019052
:100DB000022002900020039004900D20059001A9CC
:100DC000084802F003FC06B010BD00000000024815
:100DD000DC44025800100258000002580008025873
:100DE000000C0258000402582DE9F041044602F0BC
:100DF000EBFC804614B90120BDE8F08194F8350081
:100E0000022808D08020606500BF002084F83400EC
:100E100000BF0120F0E7FE492068884249D0FC4924
:100E200018312068884244D0F9493031206888421E
:100E30003FD0F7494831206888423AD0F4496031C0
:100E40002068884235D0F24978312068884230D015
:100E5000EF499031206888422BD0ED49A8312068B5
:100E6000884226D0EB492068884222D0E9491831CF
:100E7000206888421DD0E74930312068884218D068
:100E8000E44948312068884213D0E2496031206843
:100E900088420ED0DF4978312068884209D0DD4988
:100EA00090312068884204D0DA49A831206888420D
:100EB00001D1012000E0002068B12068006820F026
:100EC0001E00216808602068406920F080002168C9
:100ED0004861256806E02068006820F00E0021685F
:100EE00008602568CA492068884270D0C84918310E
:100EF000206888426BD0C64930312068884266D06D
:100F0000C34948312068884261D0C14960312068B6
:100F100088425CD0BE4978312068884257D0BC49AD
:100F200090312068884252D0B949A831206888425F
:100F30004DD0B8492068884249D0B6491831206858
:100F4000884244D0B3493031206888423FD0B1490B
:100F50004831206888423AD0AE49603120688842E2
:100F600035D0AC4978312068884230D0A9499031D9
:100F7000206888422BD0A749A8312068884226D013
:100F8000A5492068884222D0A349143120688842AC
:100F90001DD0A14928312068884218D09E493C3193
:100FA0002068884213D09C495031206888420ED076
:100FB000994964312068884209D09749783120687E
:100FC000884204D094498C312068884201D10120A4
:100FD00000E0002028B1206E006820F48070216EAF
:100FE00008608B492068884249D0894918312068B7
:100FF000884244D086493031206888423FD08449B5
:101000004831206888423AD081496031206888425E
:1010100035D07F4978312068884230D07C49903182
:10102000206888422BD07A49A8312068884226D08F
:1010300078492068884222D0764918312068884251
:101040001DD0744930312068884218D07149483128
:101050002068884213D06F496031206888420ED0E2
:101060006C4978312068884209D06A4990312068FB
:10107000884204D06749A8312068884206D1206898
:10108000006820F001002168086005E02068006821
:1010900020F001002168086011E002F095FBA0EB50
:1010A000080005280BD920206065032084F835004E
:1010B00000BF002084F8340000BF01209CE62868AF
:1010C00000F001000028E8D151492068884249D049
:1010D0004F4918312068884244D04D49303120684A
:1010E00088423FD04A494831206888423AD048492E
:1010F00060312068884235D045497831206888427F
:1011000030D043499031206888422BD04049A831E3
:101110002068884226D03F492068884222D03D4935
:101120001831206888421DD03A4930312068884201
:1011300018D0384948312068884213D03549603189
:10114000206888420ED0334978312068884209D01F
:10115000304990312068884204D02E49A831206857
:10116000884201D1012000E0002040B1A66D94F832
:101170005C0000F01F013F208840B06007E0A76DD1
:1011800094F85C0000F01F0101208840786020493D
:101190002068884276D01E4918312068884271D074
:1011A0001B493031206888426CD019494831206889
:1011B000884267D0164960312068884262D014495D
:1011C0007831206888425DD011499031206888428A
:1011D00058D00F49A8312068884253D00D49206863
:1011E00088424FD00B491831206888424AD00949BB
:1011F00030312068884245D006494831206888420D
:1012000040D004496031206888423BD0014905E064
:10121000100002401004024008540258783120683F
:1012200088422FD02549206888422BD02349183185
:101230002068884226D022492068884222D020494E
:101240001431206888421DD01D4928312068884209
:1012500018D01B493C312068884213D018495031BE
:10126000206888420ED0164964312068884209D02F
:10127000134978312068884204D011498C312068A4
:10128000884201D1012000E0002068B1D4E91910A2
:101290004860E06E40B1E06E006820F48070E16E5E
:1012A0000860D4E91C104860012084F8350000BFB4
:1012B000002084F8340000BF00BF9DE5A004024078
:1012C0000854025870B504460CB9012070BD94F85A
:1012D0003500022803D0802060650120F6E7DC4954
:1012E0002068884249D0DA4918312068884244D0C1
:1012F000D7493031206888423FD0D54948312068ED
:1013000088423AD0D24960312068884235D0D049ED
:1013100078312068884230D0CD49903120688842A9
:101320002BD0CB49A8312068884226D0C9492068F3
:10133000884222D0C7491831206888421DD0C5494B
:1013400030312068884218D0C2494831206888422C
:1013500013D0C0496031206888420ED0BD49783131
:101360002068884209D0BB4990312068884204D067
:10137000B849A8312068884201D1012000E000204E
:10138000F0B3042084F83500B149206888424BD07E
:10139000AF4918312068884246D0AD4930312068C5
:1013A000884241D0AA494831206888423CD0A849A7
:1013B00060312068884237D0A5497831206888425A
:1013C00032D0A3499031206888422DD0A049A8315D
:1013D0002068884228D09F492068884224D09D49AF
:1013E0001831206888421FD09A49303120688842DD
:1013F0001AD0984948312068884215D0954900E0B4
:1014000020E06031206888420ED09249783120680F
:10141000884209D08F4990312068884204D08D4994
:10142000A8312068884206D12068006820F00100B9
:101430002168086009E12068006820F00100216847
:10144000086002E12068006820F00E002168086052
:101450007F492068884249D07D49183120688842F8
:1014600044D07B493031206888423FD078494831A8
:10147000206888423AD0764960312068884235D069
:10148000734978312068884230D0714990312068A2
:1014900088422BD06E49A8312068884226D06D49F9
:1014A0002068884222D06B491831206888421DD0BC
:1014B000684930312068884218D066494831206830
:1014C000884213D063496031206888420ED0614958
:1014D00078312068884209D05E499031206888427E
:1014E00004D05C49A8312068884206D12068006891
:1014F00020F001002168086005E02068006820F005
:1015000001002168086052492068884270D0504923
:101510001831206888426BD04D49303120688842AC
:1015200066D04B4948312068884261D048496031D3
:10153000206888425CD0464978312068884257D07C
:10154000434990312068884252D04149A8312068EF
:1015500088424DD03F492068884249D03D491831E2
:101560002068884244D03B493031206888423FD0CF
:1015700038494831206888423AD03649603120687D
:10158000884235D0334978312068884230D031499B
:101590009031206888422BD02E49A831206888429B
:1015A00026D02D492068884222D02B49143120684A
:1015B00088421DD0284928312068884218D0264901
:1015C0003C312068884213D023495031206888423A
:1015D0000ED0214964312068884209D01E497831F3
:1015E0002068884204D01C498C312068884201D18F
:1015F000012000E00020D8B1206E006820F4807047
:10160000216E0860A56D94F85C0000F01F010120B8
:1016100088406860D4E919104860E06E40B1E06E1F
:10162000006820F48070E16E0860D4E91C10486006
:10163000012084F8350000BF002084F8340000BF8A
:10164000206D10B12046216D884700203EE6000045
:101650001000024010040240085402582DE9F84FCF
:10166000044600200090FE4800684FF41651B0FB7D
:10167000F1FAA66DD4F858803768D8F80090F94987
:101680002068884249D0F74918312068884244D000
:10169000F4493031206888423FD0F249483120680F
:1016A00088423AD0EF4960312068884235D0ED4910
:1016B00078312068884230D0EA49903120688842E9
:1016C0002BD0E849A8312068884226D0E649206816
:1016D000884222D0E4491831206888421DD0E2496E
:1016E00030312068884218D0DF494831206888426C
:1016F00013D0DD496031206888420ED0DA49783154
:101700002068884209D0D84990312068884204D0A6
:10171000D549A8312068884201D1012000E000208D
:1017200000287DD094F85C0000F01F01082088405C
:101730003840002868D0CB492068884249D0C94940
:1017400018312068884244D0C64930312068884228
:101750003FD0C4494831206888423AD0C1496031FD
:101760002068884235D0BF4978312068884230D01F
:10177000BC499031206888422BD0BA49A8312068F2
:10178000884226D0B8492068884222D0B64918310C
:10179000206888421DD0B44930312068884218D072
:1017A000B14948312068884213D0AF496031206880
:1017B00088420ED0AC4978312068884209D0AA49C5
:1017C00090312068884204D0A749A8312068884217
:1017D00004D12068006800F0040003E0206800687D
:1017E00000F0080080B12068006820F00400216843
:1017F000086094F85C0000F01F0108208840B06089
:10180000606D40F00100606594F85C0000F01F011D
:10181000012088403840E8B392492068884200E0BF
:10182000B7E24BD08F4918312068884246D08D49A5
:1018300030312068884241D08A4948312068884246
:101840003CD0884960312068884237D0854978315A
:101850002068884232D083499031206888422DD058
:101860008049A8312068884228D07F492068884272
:1018700024D07D491831206888421FD07A49303100
:10188000206888421AD0784948312068884215D0AB
:10189000754900E026E06031206888420ED0724928
:1018A00078312068884209D06F4990312068884299
:1018B00004D06D49A8312068884204D1206840696D
:1018C00000F0800002E020680068002050B194F829
:1018D0005C0000F01F0101208840B060606D40F0A6
:1018E0000200606594F85C0000F01F01042088404D
:1018F0003840E8B35B49206888424BD059491831D9
:101900002068884246D0574930312068884241D00B
:1019100054494831206888423CD05249603120689F
:10192000884237D04F4978312068884232D04D49BB
:101930009031206888422DD04A49A83120688842D9
:1019400028D049492068884224D047491831206866
:1019500088421FD044493031206888421AD0424919
:1019600048312068884215D03F496031206800E046
:1019700024E088420ED03C4978312068884209D062
:10198000394990312068884204D03749A83120680D
:10199000884204D12068006800F0020002E020685C
:1019A0000068002050B194F85C0000F01F01042092
:1019B0008840B060606D40F00400606594F85C00A1
:1019C00000F01F01102088403840E8B32549206806
:1019D000884251D023491831206888424CD021498F
:1019E00030312068884247D01E49483120688842FB
:1019F00042D01C496031206888423DD01949783175
:101A00002068884238D0174990312068884233D006
:101A10001449A831206888422ED013492068884292
:101A20002AD0114918312068884225D00E4930311A
:101A30002068884220D00C494831206888421BD059
:101A400009496031206800E04DE0884214D0064921
:101A50007831206888420FD003499031206805E032
:101A6000A80000241000024010040240884203D065
:101A7000FE492068884204D12068006800F0080010
:101A800003E02068006800F0040060B394F85C0094
:101A900000F01F0110208840B0602068006800F44A
:101AA000802080B12068006800F4002028B9206CF4
:101AB000C8B12046216C884715E0A06C98B120463B
:101AC000A16C88470FE02068006800F4807028B996
:101AD0002068006820F0080021680860206C10B1C0
:101AE0002046216C884794F85C0000F01F012020FC
:101AF0008840384000287DD0DD492068884249D0A0
:101B0000DB4918312068884244D0D94930312068F7
:101B100088423FD0D6494831206888423AD0D449DB
:101B200060312068884235D0D149783120688842B8
:101B300030D0CF499031206888422BD0CC49A83191
:101B40002068884226D0C949A8392068884221D017
:101B5000C6499039206888421CD0C4497839206829
:101B6000884217D0C14960392068884212D0BF49E5
:101B70004839206888420DD0BC49303920688842F5
:101B800008D0BA4918392068884203D0B74920687C
:101B9000884204D12068006800F0100003E020684B
:101BA000006800F0020028B394F85C0000F01F0108
:101BB00020208840B06094F8350004282DD120689A
:101BC000006820F01600216808602068406920F055
:101BD000800021684861206C08B9A06C28B1206899
:101BE000006820F008002168086094F85C0000F0AC
:101BF0001F0100E03FE03F208840B060012084F8F2
:101C0000350000BF002084F8340000BF206D10B103
:101C10002046216D8847BDE8F88F2068006800F4F1
:101C2000802080B12068006800F4002028B9606C32
:101C300008B32046616C88471DE0E06BD8B12046B0
:101C4000E16B884717E02068006800F4807068B98D
:101C50002068006820F0100021680860012084F8E6
:101C6000350000BF002084F8340000BFE06B10B1E5
:101C70002046E16B8847606D00287AD0606D00F0E7
:101C80000100E8B3042084F83500794920688842CF
:101C90004BD0774918312068884246D0744930319A
:101CA0002068884241D072494831206888423CD03F
:101CB0006F4960312068884237D06D49783120689B
:101CC000884232D06A499031206888422DD06849D4
:101CD000A8312068884228D06449A8392068884201
:101CE00023D062499039206888421ED05F497839F4
:101CF0002068884219D05D4960392068884200E038
:101D000040E012D059494839206888420DD05749DF
:101D100030392068884208D05449183920688842F0
:101D200003D052492068884206D12068006820F01C
:101D300001002168086005E02068006820F00100CB
:101D40002168086000BF0098401C0090504500D9F1
:101D500005E02068006800F001000028F3D100BF12
:101D60002068006800F0010020B1032084F83500ED
:101D700003E00DE0012084F8350000BF002084F866
:101D8000340000BFE06C002802D02046E16C884798
:101D9000D9E138492068884222D036491431206878
:101DA00088421DD0334928312068884218D03149F3
:101DB0003C312068884213D02E4950312068884237
:101DC0000ED02C4964312068884209D029497831E5
:101DD0002068884204D027498C312068884201D18C
:101DE000012000E000200028D2D02068056894F887
:101DF0005C0000F01F010420884000EA0900D8B30D
:101E000005F00400C0B394F85C0000F01F0104204A
:101E10008840C8F8040005F4004080B105F4803023
:101E200030B9A06C0028B3D02046A16C88478AE165
:101E3000206C0028ACD02046216C884783E105F057
:101E40002000E8BB0A492068884253D0084918316D
:101E5000206888424ED0064930312068884249D0F7
:101E6000034948312068884244D006E0B804024063
:101E700010000240085402584FE0B4496031206815
:101E8000884237D0B14978312068884232D0AF4992
:101E90009031206888422DD0AC49A8312068884212
:101EA00028D0AB492068884224D0A949183120683D
:101EB00088421FD0A6493031206888421AD000E0FD
:101EC00025E0A34948312068884213D0A0496031F9
:101ED000206888420ED09E4978312068884209D017
:101EE0009B4990312068884204D09949A8312068E4
:101EF000884206D12068006820F008002168086048
:101F000005E02068006820F0040021680860206C6B
:101F100010B32046216C884715E194F85C0000F06E
:101F20001F010220884000EA0900E8B305F0020022
:101F3000D0B394F85C0000F01F0102208840C8F87C
:101F4000040005F4004070B105F4803028B9606CDD
:101F500010B12046616C8847F5E0E06BF0B3204695
:101F6000E16B8847EFE005F02000C0BB77492068AF
:101F700088424ED0754918312068884249D073494B
:101F800030312068884244D0704948312068884206
:101F90003FD06E496031206888423AD06B49783131
:101FA0002068884235D000E04EE0684990312068D2
:101FB00088422ED06549A8312068884229D06449DA
:101FC0002068884225D0624918312068884220D094
:101FD0005F493031206888421BD001E06EE02DE07F
:101FE0005B4948312068884213D0594960312068E4
:101FF00088420ED0564978312068884209D0544929
:1020000090312068884204D05149A8312068884224
:1020100006D12068006820F014002168086005E0FF
:102020002068006820F00A0021680860012084F818
:10203000350000BF002084F8340000BFE06BE8B337
:102040002046E16B88477EE094F85C0000F01F01B9
:102050000820884000EA090080B305F0080068B352
:102060003A49206888424BD0384918312068884264
:1020700046D0364930312068884241D03349483112
:10208000206888423CD0314960312068884237D08E
:102090002E4978312068884232D02C49903120680E
:1020A00088422DD02949A8312068884228D0284963
:1020B0002068884224D02649183100E043E0206897
:1020C00088421DD0224930312068884218D02049EA
:1020D00048312068884213D01D4960312068884209
:1020E0000ED01B4978312068884209D018499031B8
:1020F0002068884204D01649A8312068884206D159
:102100002068006820F01C002168086005E0206855
:10211000006820F00E002168086094F85C0000F070
:102120001F0101208840C8F804000120606584F880
:10213000350000BF002084F8340000BFE06C10B10F
:102140002046E16C884700BF65E5000010000240B2
:10215000100402402DE9F041044601F035FB8046B1
:1021600014B90120BDE8F081FE492068884249D0B9
:10217000FC4918312068884244D0FA49303120683F
:1021800088423FD0F7494831206888423AD0F54923
:1021900060312068884235D0F24978312068884221
:1021A00030D0F0499031206888422BD0ED49A831D9
:1021B0002068884226D0EC492068884222D0EA492B
:1021C0001831206888421DD0E749303120688842A4
:1021D00018D0E54948312068884213D0E24960317F
:1021E000206888420ED0E04978312068884209D0C2
:1021F000DD4990312068884204D0DB49A83120684D
:10220000884201D1012000E00020002873D0606ADC
:1022100000B100BF022084F8350000BF002084F820
:10222000340000BFCF492068884249D0CD491831D9
:102230002068884244D0CB493031206888423FD062
:10224000C8494831206888423AD0C6496031206880
:10225000884235D0C34978312068884230D0C1499E
:102260009031206888422BD0BE49A831206888422E
:1022700026D0BD492068884222D0BB491831206849
:1022800088421DD0B84930312068884218D0B649FC
:1022900048312068884213D0B349603120688842B1
:1022A0000ED0B14978312068884209D0AE499031CA
:1022B0002068884204D0AC49A8312068884206D101
:1022C0002068006820F001002168086005E02068AF
:1022D000006820F00100216808600DE001F074FA48
:1022E000A0EB0800052807D920206065032084F8AA
:1022F0003500012036E769E02068006800F0010041
:102300000028EBD12068056898480540D4E902010F
:1023100008432169084361690843A1690843E169E9
:102320000843216A08430543606A042803D1D4E9BD
:102330000B01084305436068292802D360682E28F2
:1023400017D960683F2802D36068422811D96068B5
:10235000472802D3606848280BD960684F2802D309
:102360006068522805D96068742804D360687728AB
:1023700001D8012000E0002008B145F48015206854
:1023800005602068456925F00705606A0543606AB5
:1023900004280DD1A06A0543E06A48B12046FEF743
:1023A000CFF928B140206065012084F83500D9E6D6
:1023B000206845612046FEF79FF8064694F85C00C9
:1023C00000F01F013F208840B0609EE0684920680F
:1023D000884222D066491431206888421DD0644961
:1023E00028312068884218D061493C3120688842F1
:1023F00013D05F495031206888420ED05C49643167
:102400002068884209D05A4978312068884204D02F
:1024100057498C312068884201D1012000E000201A
:10242000E0B353492068884222D0514914312068D2
:1024300088421DD04E4928312068884218D04C4926
:102440003C312068884213D0494950312068884285
:102450000ED0474964312068884209D04449783118
:102460002068884204D042498C312068884201D1DA
:10247000012000E0002000B100BF022084F83500F8
:1024800000BF002084F8340000BF20680568394888
:102490000540A068402802D1102106E02EE0A06887
:1024A000802801D1C10100E00021E06841EAD001AB
:1024B000206941EAD001606941EAD001A06941EA9E
:1024C000D001E06941EAD001206A41EA10100543D9
:1024D0002068056026492068401A1421B0FBF1F0FD
:1024E0008000E0652046FEF707F8074694F85C0098
:1024F00000F01F0101208840786006E04020606500
:10250000032084F8350001202CE616492068884213
:102510007AD0144918312068884275D01149303179
:102520002068884270D00F494831206888426BD0BB
:102530000C4960312068884266D00A4978312068A9
:10254000884261D007499031206888425CD00549B3
:10255000A8312068884257D003492068884253D068
:10256000014909E010000240100402403F8010FEC3
:10257000085402580F00FEFF18312068884243D0EB
:102580003749206888423FD0354918312068884251
:102590003AD0334930312068884235D0304948310B
:1025A0002068884230D02E496031206888422BD084
:1025B0002B4978312068884226D02A4920688842F1
:1025C00022D028491431206888421DD0254928315D
:1025D0002068884218D023493C312068884213D0B3
:1025E00020495031206888420ED01E49643120684D
:1025F000884209D01B4978312068884204D01949A3
:102600008C312068884201D1012000E0002000B315
:102610002046FDF7E7FFA068802801D10020606018
:102620002079216E0860D4E919104860606860B1B3
:102630006068082809D82046FEF736F80020E16EC9
:102640000860D4E91C10486003E00020E0662067C1
:10265000606700206065012084F83500002081E576
:10266000400402400854025870B5044601F0ACF82A
:1026700006462546681C10B104480078054400BF92
:1026800001F0A2F8801BA842FAD370BDA400002478
:1026900030B5034693F89840012C01D0022C3ED16E
:1026A0001868806D084030B91868C06D40F00100AE
:1026B0001D68E8650EE01868806D0840884206D104
:1026C0001868C06D40F002001D68E86502E0032054
:1026D0001D68E86501F4007030B11868D0F8E000BA
:1026E00010431D68C5F8E00001F4806030B118683F
:1026F000D0F8E40010431D68C5F8E40000BF186876
:10270000406D0B4D0D4028431D6868650948006801
:1027100040EA9170074D286000BF002030BDD3F81B
:102720009C0040F00200C3F89C000120F6E7000086
:10273000FFFFCF3F14A800402DE9F04104460E46AC
:102740001746706800B900E000BF94F898000228AE
:1027500032D12068D0F8C00000F07C5040B9D4F8E5
:102760009C0040F02000C4F89C000120BDE8F081EE
:102770002068D0F8C40000F4001038B1D4F89C00F0
:1027800040F40070C4F89C000120EFE72068D0F806
:10279000C400C0F304452B463A4631462046FEF7B6
:1027A000B9F90120A8402168C1F8D0000120A84053
:1027B000C4F894000020D9E7D4F89C0040F0080049
:1027C000C4F89C000120D1E77047F0B5024692F8AA
:1027D0009860012E01D0022E43D1C868072800D18D
:1027E00000BF086818BBC868072800D000BFC868C9
:1027F00007280BD1088A4FF0605747EA0040CF699D
:1028000040EA07208F6940EA07040AE0087A800757
:102810000F7B40EAC7600F8A40EA07404F6940EAF1
:102820000704D76E486807EB80031C6017E0C86890
:10283000072800D000BF0F7B086940EA4774C868CA
:10284000072801D18D6903E00F7A486940EA87754E
:10285000176F486807EBC0031C601B1D1D6000203C
:10286000F0BDD2F89C0040F00200C2F89C000120AC
:10287000F6E770B50446049D94F8980001280AD143
:10288000080140EA820040EA430028432668C6F86F
:102890008000002070BDD4F89C0040F00400C4F813
:1028A0009C000120F6E77047704700002DE9F043D7
:1028B00004460D469C46002394F89880B8F1020F18
:1028C00074D1402D38D12068D0F8A00000F4FE006B
:1028D00040B9D4F89C0040F02000C4F89C000120CE
:1028E000BDE8F0832068D0F8A40000F07F0038B97C
:1028F000D4F89C0040F48070C4F89C000120EFE7FD
:102900002068D0F8A400C0F3006040B12068D0F87F
:10291000A0004FF00049B9EBD07F00D1012320681F
:10292000D0F8A400C0F305200344606C5843D4F8E9
:10293000749009EB80014BE0412D38D12068D0F82C
:10294000B00000F4FE0038B9D4F89C0040F020003C
:10295000C4F89C000120C3E72068D0F8B40000F060
:102960007F0038B9D4F89C0040F48070C4F89C0013
:102970000120B5E72068D0F8B400C0F3006040B192
:102980002068D0F8B0004FF00049B9EBD07F00D1FB
:1029900001232068D0F8B400C0F305200344E06CA4
:1029A0005843D4F8789009EB800111E06EE0206D77
:1029B000A84207D8D4F89C0040F02000C4F89C003E
:1029C00001208DE7606D6843D4F87C9009EB8001AD
:1029D000086800F080405060506820B90868C0F373
:1029E0008A40106003E0086820F0604010600868CA
:1029F00000F000509060086800F000401061091D70
:102A0000088880B2D061086800F47020D06008683F
:102A100000F480105061086800F4001090610868AC
:102A2000C0F3066010620868C00F5062091D0F46AF
:102A3000002603E0B85D0CF80600761CDFF85C9019
:102A4000D06809EB10400078B042F3D8402D03D194
:102A50002068C0F8A83017E0412D03D12068C0F8E5
:102A6000B83011E0202D06D20120A840D4F8009003
:102A7000C9F8980008E005F01F09012000FA09F0E4
:102A8000D4F80090C9F89C00002029E7D4F89C00F5
:102A900040F00800C4F89C00012021E760DE000837
:102AA000704700002DE9F04F8DB00446EF480068F4
:102AB0008707EE48001D006807EA80772068006DF0
:102AC00000F470482068406D00EA08082068006D36
:102AD00000F00F092068406D00EA09092068006DC8
:102AE00000F0F00A2068406D00EA0A0A2068006DD4
:102AF00000F0715B2068406D00EA0B0B2068006DF0
:102B000000F060700C902068406D0C9908400C90AB
:102B10002068456D2068066DC5F3002070B1C6F3CE
:102B2000002058B100BF4FF4807021680865002074
:102B3000CE49086000BF2046FFF7B2FFC5F38020F2
:102B4000C8B1C6F38020B0B12068D0F8DC000A908C
:102B50002068D0F8E4000A9908400A9000BF4FF4BA
:102B60008060216808650020C049086000BF2046D9
:102B70000A9900F0F7FC67B100BFBD4838402168F2
:102B80000865B80FB949086000BF39462046FFF70D
:102B90001BFEB8F1000F0ED000BFB54808EA0000D8
:102BA000216808654FEA9870B049086000BF414647
:102BB000204600F0D9FCB9F1000F0ED000BFAC48A0
:102BC00009EA0000216808654FEA9970A749086082
:102BD00000BF4946204600F0BFFBBAF1000F0ED0FF
:102BE00000BFA3480AEA0000216808654FEA9A700E
:102BF0009E49086000BF5146204600F023FCC5F303
:102C0000C02070B1C6F3C02058B100BF4FF40060BF
:102C10002168086500209549086000BF204600F043
:102C2000A4FCC5F34020C8B1C6F34020B0B1206871
:102C3000D0F8D8000B902068D0F8E0000B9908403D
:102C40000B9000BF4FF40070216808650020874991
:102C5000086000BF20460B9900F085FCC5F3C0401A
:102C600070B1C6F3C04058B100BF4FF400202168D6
:102C7000086500207D49086000BF204600F06AFB1F
:102C8000C5F3004070B1C6F3004058B100BF4FF427
:102C900080302168086500207449086000BF204624
:102CA00000F05FFCC5F3804070B1C6F3804058B1BE
:102CB00000BF4FF480202168086500206B49086040
:102CC00000BF204600F04CFCC5F3404088B1C6F37D
:102CD000404070B100BF4FF400302168086500200B
:102CE0006249086000BFD4F89C0040F08000C4F83E
:102CF0009C000C9870B100BF5D490C980840216899
:102D000008650C98800F5949086000BF20460C994F
:102D1000FFF7CAFDBBF1000F10D000BF54480BEA0B
:102D20000000216808654FEA9B705049086000BFA9
:102D3000D4F89C0040EA0B00C4F89C004D49206880
:102D400088427DD16068806800F00300002877D059
:102D50006068006A00F00F0009906068406A099995
:102D6000084009906068006A00F0300008906068D0
:102D7000406A0899084008906068006A00F4C070D2
:102D800007906068406A0799084007906068006A89
:102D900000F4FC4006906068406A0699084006907E
:102DA0006068006A00F4F02005906068406A059948
:102DB000084005906068406A02906068006A01906F
:102DC000099830B10998616808622046099900F0B5
:102DD000C4FB089830B108986168086220460899D9
:102DE00000F0BDFB0298C0F38010A0B10198C0F3C1
:102DF000801080B16068C06B000C04906068C06B8C
:102E000000F03F0003904020616808622046DDE941
:102E1000032100F0A3FB079830B1079861680862AE
:102E20002046079900F098FB069840B10698616823
:102E30000862D4F89C0006990843C4F89C0000E09E
:102E40000AE0059840B1059861680862D4F89C00D2
:102E500005990843C4F89C00D4F89C0010B12046A2
:102E6000FFF721FD0DB0BDE8F08F000010A8004075
:102E7000FFFFCF3F00A0004070B594B004464C2245
:102E8000B34901A8FDF7D1FA14B9012014B070BDFF
:102E9000B0492068884203D1206800F580706060E6
:102EA000A068B0F5407F00D100BF206C00B100BF2A
:102EB000A06C00B100BF206D00B100BF206E00B15A
:102EC00000BFD4E91710084400B100BF94F898007F
:102ED00028B9002084F89900204600F03DF92068C8
:102EE000806920F010002168886100F06DFC0546C3
:102EF0000EE000F069FC401B0A2809D9983460688C
:102F000040F001006060032004F898090120BDE74B
:102F10002068806900F008000828EAD020688069ED
:102F200040F001002168886100F04EFC05460EE08B
:102F300000F04AFC401B0A2809D99834606840F028
:102F400001006060032004F8980901209EE72068D2
:102F5000806900F001000028EAD02068806940F014
:102F6000020021688861207C012806D120688069E0
:102F700020F040002168886105E02068806940F009
:102F8000400021688861607C012806D12068806942
:102F900040F480402168886105E02068806920F461
:102FA000804021688861A07C012806D12068806962
:102FB00020F480502168886105E02068806940F431
:102FC0008050216888612068806920F44070A16881
:102FD0000843216888612068806920F0A400216886
:102FE00088612068006920F0100021680861E068AD
:102FF000012806D12068806940F0040021688861BA
:1030000020E0E068F0B1E068022815D0206880690F
:1030100040F08000216888612068006940F010005D
:1030200021680861E06803280CD12068806940F0BD
:1030300020002168886105E02068806940F0200058
:1030400021688861207E401E4106E069401E41EAF9
:103050000020216A491E0843A18A491E40EA014016
:103060002168C861A068B0F5407F0FD1A06A401EFA
:10307000E16A491E40EA0121206B401E41EA00112D
:10308000A08C401E41EA00402168C860206E38B123
:103090002068D0F8C000616E08432168C1F8C00004
:1030A000D4E91710084460B12068D0F8C80020F0B7
:1030B000070001AAA16E52F8211008432168C1F847
:1030C000C800206C60B12068D0F8BC0020F0070078
:1030D00001AA616C52F8211008432168C1F8BC00B4
:1030E000A06C68B12068D0F8BC0020F0700101AA83
:1030F000E06C52F8200041EA00102168C1F8BC00E1
:10310000206D68B12068D0F8BC0020F4E06101AA0D
:10311000606D52F8200041EA00202168C1F8BC002F
:103120000C492068884205D16068806820F003005F
:1031300061688860002044F8940FA060012020712D
:10314000943C2046FDF7D6FB064630469EE600003E
:1031500070DE000800A0004010B5B6B0044614218F
:1031600030A8FDF77BF9B82102A8FDF777F972497D
:103170002068884249D14FF400410020CDE9021077
:1031800048031D9002A801F07BFD08B1FDF73EFB4E
:103190006A480068401C69490860084600680128C0
:1031A0000DD100BF6648006840F480706449086033
:1031B0000846006800F48070019000BF00BF00BFA7
:1031C0005F480C38006840F008005D490C39086021
:1031D0000846006800F00800019000BF00BF03200F
:1031E00030900220319000203290339009203490AA
:1031F00030A9544800F0EAF900220521132000F01C
:1032000099FC132000F082FC93E04F49206888422B
:1032100049D14FF400410020CDE9021048031D9030
:1032200002A801F02DFD08B1FDF7F0FA434800684F
:10323000401C424908600846006801280DD100BFC3
:103240003F48006840F480703D49086008460068C7
:1032500000F48070019000BF00BF00BF38480C38F8
:10326000006840F0020036490C39086008460068E2
:1032700000F00200019000BF00BF602030900220EB
:1032800031900020329033900920349030A92F489B
:1032900000F09CF900220521142000F04BFC1420C2
:1032A00000F034FC45E02A492068884241D14FF4BF
:1032B00000410020CDE9021048031D9002A801F052
:1032C000DFFC08B1FDF7A2FA1C480068401C1B494E
:1032D00008600846006801280DD100BF1848006842
:1032E00040F48070164908600846006800F4807059
:1032F000019000BF00BF00BF11480C38006840F0CB
:1033000008000F490C3908600846006800F0080002
:10331000019000BF00BF4FF4405030900220319028
:103320000020329033900520349030A9054800F0F9
:103330004DF936B010BD000000A0004098000024F8
:10334000EC440258000C025800A40040000402584B
:1033500000D4004070470000F8B505460E4606F060
:103360000100002863D03249286888425FD140219B
:103370003048FDF773F82F4B2F4A40212846FFF7BE
:1033800095FA2D48008884B22A48807833283ED1A7
:103390002848C07851283AD12648406800909DEDD1
:1033A000000A04EB8400254901EB001080ED110AAE
:1033B00004EB840001EB001090F84C0030BB04EBF0
:1033C000840001EB001090ED050AB5EEC00AF1EEA5
:1033D00010FA1BD004EB840001EB001090ED050AFD
:1033E00004EB840001EB0010D0ED110A30EE600A0E
:1033F00004EB840001EB001080ED120A012104EBC4
:1034000084000E4A02EB001080F84C1009E00A49D3
:10341000CA6804EB8401094B03EB0110054908F06D
:103420004CF807480068401C0549086000BFF8BD1B
:1034300000A00040545D00242C5D0024A04900241D
:10344000B0000024F8B505460E4606F0100000282E
:103450005ED03049286888425AD140212E48FCF776
:10346000FDFF2D4B2D4A41212846FFF71FFA2B481F
:10347000008884B22848807833283ED12648C07816
:1034800051283AD12448406800909DED000A04EB91
:103490008400234901EB001080ED110A04EB840045
:1034A00001EB001090F84C0030BB04EB840001EB02
:1034B000001090ED050AB5EEC00AF1EE10FA1BD02F
:1034C00004EB840001EB001090ED050A04EB84008E
:1034D00001EB0010D0ED110A30EE600A04EB84001D
:1034E00001EB001080ED120A012104EB84000C4A6C
:1034F00002EB001080F84C1009E00849CA6804EBA0
:103500008401074B03EB0110034907F0D6FF00BF0E
:10351000F8BD000000A40040BC5D0024945D0024C0
:10352000A0490024014691F8980001280CD10220FE
:1035300081F898000868806920F001000A689061AD
:103540000020C1F89C007047D1F89C0040F00400B6
:10355000C1F89C000120F6E770477047704770473C
:1035600070477047704770477047704770B50446A2
:10357000B4F5004F15D100F027F905460A48006858
:10358000281AC82800D270BD07480560074800689F
:1035900018B901200549086002E0002003490860CD
:1035A00000BF00BFEFE70000C4000024C0000024FB
:1035B00010B5044604480068204020B10248046069
:1035C0002046FFF7D3FF10BD88000058F8B502462B
:1035D0000B4600216D4DD2E001278F401E6806EAA0
:1035E0000704002C72D01E7906F00306012E04D0C9
:1035F0001E7906F00306022E13D190684F000326B1
:10360000BE40B0434F00DE68BE403043906050681B
:1036100001268E40B0431E79C6F300168E4030431B
:1036200050601E7906F00306032E09D0D0684F00C3
:103630000326BE40B0434F009E68BE403043D0607A
:103640001E7906F00306022E13D1CF0802F12006E0
:1036500056F827004E07F70E0F26BE40B0434F071F
:10366000FF0E1E69BE403043CF0802F1200646F827
:10367000270010684F000326BE40B0431E7906F0B5
:1036800003064F00BE40304310605E6806F44036CB
:10369000002E73D000BF3E4E366846F002063C4F07
:1036A0003E603E46366806F00206009600BF00BF48
:1036B000384E8F0856F827008E07370F0F26BE406A
:1036C000B043354EB24202D1002629E056E0334ED7
:1036D000B24201D1012623E0314EB24201D102268D
:1036E0001EE0304EB24201D1032619E02E4EB24206
:1036F00001D1042614E02D4EB24201D105260FE07F
:103700002B4EB24201D106260AE02A4EB24201D126
:10371000072605E0284EB24201D1092600E00A261C
:103720008F073F0FBE4030431A4E8F0846F82700E0
:103730004FF0B0463068A0435E6806F4801606B1CC
:1037400020434FF0B04630607068A0435E6806F4D6
:10375000001606B120434FF0B04670606868A04381
:103760005E6806F4003606B1204368602868A0430E
:103770005E6806F4803606B120432860491C1E6846
:10378000CE40002E7FF428AFF8BD00008000005826
:10379000F44402580804005800000258000402587B
:1037A00000080258000C0258001002580014025879
:1037B00000180258001C0258002402580AB1816106
:1037C00001E00B0483617047014800687047000006
:1037D0009C000024024692F8410020282DD100BF11
:1037E00092F84000012801D102207047012082F8A0
:1037F000400000BF242082F841001068006820F0DB
:103800000100136818601068006820F48050136885
:103810001860106800680843136818601068006832
:1038200040F0010013681860202082F8410000BFBA
:10383000002082F8400000BFD7E70220D5E710B58E
:1038400002460B4692F8410020282AD100BF92F888
:103850004000012801D1022010BD012082F8400063
:1038600000BF242082F841001068006820F00100A9
:10387000146820601068016821F4706141EA032136
:10388000106801601068006840F001001468206052
:10389000202082F8410000BF002082F8400000BFD5
:1038A000DAE70220D8E7000010B504460CB9012081
:1038B00010BD94F8410028B9002084F8400020464B
:1038C00000F054F8242084F841002068006820F0BB
:1038D000010021680860606820F07060216808615C
:1038E0002068806820F4004021688860E068012832
:1038F00005D1A06840F400402168886004E0A06819
:1039000040F4044021688860E068022802D1800207
:10391000216848602068406813490843216848606E
:103920002068C06820F400402168C860D4E9040120
:103930000843A16940EA01202168C860D4E9070171
:103940000843216808602068006840F00100216891
:10395000086000206064202084F84100002020637B
:1039600084F8420000BFA3E70080000210B5B6B0A3
:103970000446142130A8FCF771FDB82102A8FCF719
:103980006DFD1F492068884237D108210020CDE90C
:103990000210229002A801F073F908B1FCF736FF7B
:1039A00000BF1848006840F0020016490860084649
:1039B000006800F00200019000BF00BF4FF44070AB
:1039C000309012203190012032900020339004205A
:1039D000349030A90C48FFF7F9FD00BF09480830C2
:1039E000006840F400100749083108600846006884
:1039F00000F40010019000BF00BF36B010BD000001
:103A000000540040E0440258000402580348006893
:103A10000349097808440149086070479C00002464
:103A2000A400002410B5032000F0C2F802F066F9EB
:103A300010490968C1F303210F4A515C01F01F01CD
:103A400020FA01F40B48006800F00F001146085CF2
:103A500000F01F0024FA00F00849086008480460DC
:103A60000F2000F00FF808B1012010BD00F036F86B
:103A70000020FAE718440258E4DE0008AC000024F5
:103A8000A800002470B504461148007808B9012048
:103A900070BD0F4800784FF47A71B1FBF0F00D491A
:103AA0000968B1FBF0F5284603F0D2F908B101200E
:103AB000EEE7102C07D200222146501E00F03AF803
:103AC0000548046001E00120E2E70020E0E7000093
:103AD000A4000024A8000024A000002408B500BF12
:103AE0000948006840F0020007490860084600687D
:103AF00000F00200009000BF00BF00220F21901EC6
:103B000000F018F808BD0000F444025801460846C9
:103B100000280DDB00BF00BF00F01F0301229A4008
:103B200043099B0003F1E023C3F8002100BF00BF5D
:103B300000BF70472DE9F05F80460D46164607F03E
:103B40009FFA074639462A46334601F00700C0F17E
:103B5000070ABAF1040F02D94FF0040A01E0C0F1DC
:103B6000070AD14600F1040ABAF1070F02D24FF05A
:103B7000000A01E0A0F1030AD4464FF0010A0AFA54
:103B800009FAAAF1010A0AEA020A0AFA0CFA4FF043
:103B9000010B0BFA0CFBABF1010B0BEA030B4AEA2E
:103BA0000B042146404607F073FABDE8F09F000081
:103BB00000BF00F00702064B19684FF6FF031940DB
:103BC000044B0B4343EA0221014B196000BF7047CD
:103BD0000CED00E00000FA052DE9F04F8DB08146B4
:103BE0000C4693464FF0000AD046FE49D9F8000033
:103BF000884202D10026012501E001260025002788
:103C000010E007EB470201AB03EBC2017A1CD0B214
:103C100005F05EF920B14FF0010A0820C9F8540000
:103C2000781CC7B2022FECD3BAF1000F7ED1ED4859
:103C3000006800F0010038B1EA48006820F0010097
:103C4000E849086048F00108E748006800F0010012
:103C500038B1E548006820F00100E349086048F009
:103C60000208E24806EB460101AA02EBC10189689D
:103C7000491E50F8210020F48072DC4806EB460112
:103C800001AB03EBC1018968491E40F82120001FE8
:103C9000006800F0010000287FD0D448001F0068B1
:103CA00020F00100D149091F0860012D73D1081DC2
:103CB00005EB450101AA52F83110491E50F82100C8
:103CC00040F00202C94805EB450153F83110491E86
:103CD00040F8212005EB450001A901EBC000406838
:103CE000A0B1C24805EB450101AA02EBC101496838
:103CF000491E50F8210040F02002BC4805EB450168
:103D000003EBC1014968491E40F8212005EB45003D
:103D100001A901EBC000C068D8B1B44805EB45016A
:103D200001AA02EBC101097B491E00E0C6E201F0D5
:103D3000010150F8210040F48022AC4805EB450118
:103D400001AB03EBC101097B491E01F0010140F801
:103D5000212005EB450001A901EBC0000069002806
:103D600019D0A24805EB450101AA02EBC101097C6B
:103D7000491E01F0010150F8210040F080629B488B
:103D800005EB450101AB03EBC101097C491E01F0C4
:103D9000010140F8212079E0FFE706EB460001A988
:103DA00051F83000002871D0904806EB460101AA76
:103DB00052F83110491E50F8210020F001028B48C2
:103DC00006EB460101AB53F83110491E40F82120A3
:103DD00006EB460001A901EBC0004068A0B1834892
:103DE00006EB460101AA02EBC1014968491E50F8E1
:103DF000210020F010027D4806EB460103EBC101D3
:103E00004968491E40F8212006EB460001A901EB54
:103E1000C000C068C8B1754806EB460101AA02EBB4
:103E2000C101097B491E01F0010150F8210020F475
:103E300080326E4806EB460101AB03EBC101097B02
:103E4000491E01F0010140F8212006EB460001A9BE
:103E500001EBC0000069C8B1644806EB460101AA45
:103E600002EBC101097C491E01F0010150F821005B
:103E700020F080725D4806EB460101AB03EBC10107
:103E8000097C491E01F0010140F8212005EB4501A4
:103E900001AA52F83110206888421FD005EB450175
:103EA00002EBC10160684968884217D005EB450103
:103EB00002EBC101A068896888420FD005EB45017B
:103EC00002EBC101E068C968884207D005EB4501F3
:103ED00002EBC10120690969884227D105EB450140
:103EE00001AA52F831102068884220D105EB450123
:103EF00002EBC10160684968884218D105EB4501B1
:103F000002EBC101E068C968884210D105EB4501A8
:103F100002EBC10120690969884208D13348001FBA
:103F2000006840F001003149091F08608EE02F4809
:103F300005EB450101AA52F83110491E50F8210045
:103F400020F00102294805EB450101AB53F831107F
:103F5000491E40F8212005EB450001A901EBC000F6
:103F60004068A0B1214805EB450101AA02EBC1015F
:103F70004968491E50F8210020F010021B4805EB4B
:103F8000450103EBC1014968491E40F8212017484B
:103F900005EB450101AA02EBC1018968491E50F8F1
:103FA000210020F48072114805EB450101AB03EBC1
:103FB000C1018968491E40F8212005EB450001A98F
:103FC00001EBC000C06800B3084805EB450101AA39
:103FD00002EBC101097B491E01F0010150F82100EB
:103FE00006E000000050005200A0005204B400524D
:103FF00020F48032B34805EB450103EBC101097B96
:10400000491E01F0010140F8212005EB450001A9FE
:1040100001EBC0000069C8B1AA4805EB450101AA3F
:1040200002EBC101097C491E01F0010150F8210099
:1040300020F08072A34805EB450101AB03EBC10101
:10404000097C491E01F0010140F821209D48A1682A
:10405000491E50F8210020F440704FF4807141EA6D
:10406000462108439749A268521E41F82200606920
:10407000401E091F0968C1F3074188420BD99148C6
:10408000001F006820F47F01A08A401E41EA004022
:104090008C49091F08608B48001F006800F0010070
:1040A000002875D087482168491E50F8210020F06B
:1040B0000300401C83492268521E41F822006068B8
:1040C00068B108466168491E50F8210020F03000B0
:1040D00040F010027B486168491E40F82120E068EA
:1040E00000F4803090B17748217B491E01F0010136
:1040F00050F8210020F4E02040F480327148217B08
:10410000491E01F0010140F8212013E0E06888B168
:104110006C48217B491E01F0010150F8210020F07C
:10412000E06040F080726748217B491E01F0010188
:1041300040F82120206900F4803090B16148217C52
:10414000491E01F0010150F8210020F4E02040F464
:1041500040325C48217C491E01F0010140F82120D9
:104160009AE02069002811D05648217C491E01F0B0
:10417000010150F8210020F0E06040F04072514809
:10418000217C491E01F0010140F8212084E0FFE775
:104190004C482168491E50F8210020F003000121FD
:1041A00041EA4601084347492268521E41F822006D
:1041B000606878B108466168491E50F8210020F017
:1041C0003000102141EA461108433E496268521E00
:1041D00041F82200E06800F48030A8B13948217B22
:1041E000491E01F0010150F8210020F4E0204FF4B5
:1041F000803141EA864108433249227B521E02F057
:10420000010241F8220016E0E068A0B12D48217BB0
:10421000491E01F0010150F8210020F0E0604FF04C
:10422000807141EA866108432649227B521E02F0D2
:10423000010241F82200206900F48030A8B1214831
:10424000217C491E01F0010150F8210020F4E020FA
:104250004FF4403141EA864108431A49227C521EFC
:1042600002F0010241F8220016E02069A0B11548D1
:10427000217C491E01F0010150F8210020F0E0618D
:104280004FF0407040EA866001430E48227C521E87
:1042900002F0010240F8221008F0010028B10A489B
:1042A000006840F001000849086008F0020028B1E9
:1042B0000648006840F001000449086050460DB00F
:1042C000BDE8F08F04B400520050005200A000522C
:1042D000F8B504460025FFF777FA06460CB9012524
:1042E0007AE000206065206D002875D1204600F03E
:1042F00077F841F28831204600F044F9208A401EC8
:10430000E16841EA00416069401E41EA0020616BBA
:104310000843E169084321688968304A114008432D
:10432000216888602068C06820F4E020216A084382
:104330002168C860208EA16B41EA004021680861B5
:104340002168E06B48612068006820F4F8516068DB
:10435000401E41EA002021680860A06D334600221B
:1043600020210090204604F027FE05468DBB2068E2
:10437000C06820F0FF00616A491E08432168C860D8
:104380002068006820F04000A168084321680860A8
:10439000D4E90A0108432168D1F8081121F0A041AD
:1043A00008432168C1F808012068006840F0010056
:1043B00021680860A069022805D12068806840F063
:1043C000020021688860E068B0F1806F02D10120AE
:1043D000206501E0022020652846F8BDF4F8E0F8E9
:1043E00010B5B6B00446142130A8FCF737F8B82150
:1043F00002A8FCF733F85D49206888427ED14FF06F
:1044000000710020CDE90210159002A800F038FCE0
:1044100008B1FCF7FBF900BF5548006840F40010F4
:10442000534908600846006800F40010019000BF7E
:1044300000BF00BF0846006840F48040086008469E
:10444000006800F48040019000BF00BF00BF4848F2
:104450000C30006840F0010045490C310860084606
:10446000006800F00100019000BF00BF00BF0846D7
:10447000006840F0020008600846006800F0020092
:10448000019000BF00BF00BF0846006840F0100068
:1044900008600846006800F01000019000BF00BFEF
:1044A00000BF0846006840F0080008600846006841
:1044B00000F00800019000BF00BF02203090319052
:1044C00000203290032033900920349030A92948ED
:1044D000FFF77CF8082030900220319000203290C5
:1044E000032033900620349030A92248FFF76EF85D
:1044F0000120309002203190002000E034E0329022
:10450000032033900420349030A91B48FFF75EF855
:10451000042030900220319000203290032033900C
:104520000920349030A91448FFF750F84FF4006088
:1045300030900220319000203290032033900B20E5
:10454000349030A90D48FFF741F84FF400603090E7
:1045500002203190002032900320339009203490C3
:1045600030A90748FFF732F836B010BD00500052AE
:10457000D4440258000002580004025800100258A7
:10458000000C0258024691650020704701460A68F7
:104590000120C1F80005002081F8F404906940F082
:1045A00000609061506D024B1843506500207047C9
:1045B0000300001070B58AB0044614B901200AB097
:1045C00070BD266894F8BD0428B9002084F8BC04A6
:1045D000204600F0A9F8032084F8BD04F06B00F435
:1045E000807008B90021E160206806F073FC282281
:1045F00004F110016846FBF718FF94E80F0006F07D
:10460000F3FA20B1022084F8BD040120D7E700218D
:10461000206806F0C2FC002531E0012105EBC5024F
:1046200004F13C0000EB8200417005EBC50104F190
:104630003C0000F8215005EBC50100EB81004583EB
:10464000002105EBC50204F13C0000EB8200017182
:1046500005EBC50204F13C0000EB8200816005EB34
:10466000C50204F13C0000EB8200C16005EBC5020D
:1046700004F13C0000EB82000161681CC5B2606877
:10468000A842CAD800252AE0002105EBC50204F59E
:104690001F7000EB8200417005EBC50104F51F702F
:1046A00000F82150002105EBC50200EB82000171EA
:1046B00005EBC50204F51F7000EB8200816005EB7D
:1046C000C50204F51F7000EB8200C16005EBC50256
:1046D00004F51F7000EB82000161681CC5B26068C0
:1046E000A842D1D8282204F110016846FBF79DFEAC
:1046F00094E80F0006F002FB20B1022084F8BD040C
:1047000001205CE7002084F83800012084F8BD0413
:10471000606A012802D12046FFF738FF206806F0C2
:10472000DBFA00204BE7000010B5B0B00446B8211A
:1047300002A8FBF793FE1249206888421DD14FF46E
:1047400080210020CDE902104FF44010239002A8F0
:1047500000F096FA08B1FCF759F800F045F800BFF0
:104760000848006840F00070064908600846006884
:1047700000F00070019000BF00BF30B010BD00001D
:1047800000000440D844025870B50446154800683B
:10479000C0F3800048B91348006800F00700A04249
:1047A00001D0012070BD0020FCE70E48006820F019
:1047B000070020430B490860FFF706F8054607E0AD
:1047C000FFF702F8401BB0F57A7F01D90120E9E735
:1047D000044808380068C0F340300028F0D00020BA
:1047E000E0E700000C4802580348006840F0807081
:1047F00001490860704700000C48025810B501F0EC
:1048000033FA05490968C1F30211044A515C01F009
:104810001F01C84010BD000020440258E4DE00081B
:1048200070B50146844D2D6805F00303824D2D6857
:10483000C5F30530804D2D1D2D68C5F300147E4D48
:1048400014352D68C5F3CC0515FB04F501EE105A9F
:10485000B8EE411AF0EE410A00286FD023B1012BC7
:104860004ED0022B6BD16BE0734D283D2D68C5F304
:1048700040153DB3704D283D2D68C5F3C1066F4D01
:1048800025FA06F201EE102AF8EE411A01EE100A9E
:10489000B8EE411A81EE812A9FED691AC0EE811AA5
:1048A000654D10352D68C5F3080501EE105AB8EEB8
:1048B000411A31EE811AF7EE001A31EE211A22EE7A
:1048C000010A1CE001EE100AB8EE411ADFED5D1A94
:1048D00081EE812A9FED5A1AC0EE811A564D10358D
:1048E0002D68C5F3080501EE105AB8EE411A31EEF5
:1048F000811AF7EE001A31EE211A22EE010A5BE06E
:1049000001EE100AB8EE411ADFED4F1A81EE812A4E
:104910009FED4B1AC0EE811A474D10352D68C5F337
:10492000080501EE105AB8EE411A31EE811AF7EE81
:10493000001A31EE211A22EE010A3DE077E01DE077
:1049400001EE100AB8EE411A9FED402AC2EE011A9C
:104950009FED3B1A80EE812A374D10352D68C5F347
:10496000080501EE105AB8EE411A32EE011AB7EE00
:10497000002A31EE021A21EE810A1DE001EE100A32
:10498000B8EE411ADFED301A81EE812A9FED2C1A24
:10499000C0EE811A284D10352D68C5F3080501EECB
:1049A000105AB8EE411A31EE811AF7EE001A31EEC4
:1049B000211A22EE010A00BF00BF1F4D10352D68DD
:1049C000C5F3462501EE105AB8EE411AF7EE001A6B
:1049D00031EE211AC0EE011ABCEEE11A81ED001A87
:1049E000154D10352D68C5F3064501EE105AB8EE89
:1049F000411AF7EE001A31EE211AC0EE011ABCEE90
:104A0000E11A81ED011A0C4D10352D68C5F30665CC
:104A100001EE105AB8EE411AF7EE001A31EE211AE3
:104A2000C0EE011ABCEEE11A81ED021A03E0002586
:104A30000D604D608D6070BD284402580090D00319
:104A4000000000460024744C0024744A001BB74B3D
:104A500070B50146844D2D6805F00303824D2D6825
:104A6000C5F30550804D2D1D2D68C5F300247E4DE6
:104A70001C352D68C5F3CC0515FB04F501EE105A65
:104A8000B8EE411AF0EE410A00286FD023B1012B95
:104A90004ED0022B6BD16BE0734D283D2D68C5F3D2
:104AA00040153DB3704D283D2D68C5F3C1066F4DCF
:104AB00025FA06F201EE102AF8EE411A01EE100A6C
:104AC000B8EE411A81EE812A9FED691AC0EE811A73
:104AD000654D18352D68C5F3080501EE105AB8EE7E
:104AE000411A31EE811AF7EE001A31EE211A22EE48
:104AF000010A1CE001EE100AB8EE411ADFED5D1A62
:104B000081EE812A9FED5A1AC0EE811A564D183552
:104B10002D68C5F3080501EE105AB8EE411A31EEC2
:104B2000811AF7EE001A31EE211A22EE010A5BE03B
:104B300001EE100AB8EE411ADFED4F1A81EE812A1C
:104B40009FED4B1AC0EE811A474D18352D68C5F3FD
:104B5000080501EE105AB8EE411A31EE811AF7EE4F
:104B6000001A31EE211A22EE010A3DE077E01DE045
:104B700001EE100AB8EE411A9FED402AC2EE011A6A
:104B80009FED3B1A80EE812A374D18352D68C5F30D
:104B9000080501EE105AB8EE411A32EE011AB7EECE
:104BA000002A31EE021A21EE810A1DE001EE100A00
:104BB000B8EE411ADFED301A81EE812A9FED2C1AF2
:104BC000C0EE811A284D18352D68C5F3080501EE91
:104BD000105AB8EE411A31EE811AF7EE001A31EE92
:104BE000211A22EE010A00BF00BF1F4D18352D68A3
:104BF000C5F3462501EE105AB8EE411AF7EE001A39
:104C000031EE211AC0EE011ABCEEE11A81ED001A54
:104C1000154D18352D68C5F3064501EE105AB8EE4E
:104C2000411AF7EE001A31EE211AC0EE011ABCEE5D
:104C3000E11A81ED011A0C4D18352D68C5F3066592
:104C400001EE105AB8EE411AF7EE001A31EE211AB1
:104C5000C0EE011ABCEEE11A81ED021A03E0002554
:104C60000D604D608D6070BD284402580090D003E7
:104C7000000000460024744C0024744A001BB74B0B
:104C80002DE9F04104460025A8464FF00062D4E922
:104C9000001011400020134659404040014331D1DB
:104CA000606E48B1B0F5801F0DD0B0F5001F11D077
:104CB000B0F5401F16D114E0FE48006840F4003003
:104CC000FC49086010E0022104F1080004F09AF9A0
:104CD000054609E0022104F1280004F045FA0546E2
:104CE00002E001E0012500BF00BF55B9F1482430C2
:104CF000006820F44010616E0843EE4924310860DA
:104D000000E0A8464FF48072D4E900101140002062
:104D100013465940404001432ED1A06D05281BD2B7
:104D2000DFE800F0030A11181900E248006840F4B7
:104D30000030E049086011E0002104F1080004F0AF
:104D400061F905460AE0002104F1280004F00CFA9C
:104D5000054603E002E001E0012500BF00BF55B9B0
:104D6000D4482430006820F00700A16D0843D149E1
:104D70002431086000E0A8464FF48062D4E90010B6
:104D80001140002013465940404001433DD1D4F822
:104D9000A400B0F5C00F24D007DC68B1B0F5001F47
:104DA00011D0B0F5800F1FD114E0B0F5000F19D06D
:104DB000B0F5200F18D116E0BE48006840F400306E
:104DC000BC49086012E0002104F1080004F01AF95F
:104DD00005460BE0002104F1280004F0C5F9054662
:104DE00004E003E002E001E0012500BF00BF5DB97F
:104DF000B0482C30006820F46000D4F8A4100843B8
:104E0000AC492C31086000E0A8464FF40062D4E9B8
:104E100000011040002113465840494008433DD14D
:104E2000D4F8A800B0F1407F24D007DC68B1B0F11D
:104E3000807F11D0B0F1007F1FD114E0B0F1806FFE
:104E400019D0B0F1A06F18D116E09A48006840F46C
:104E500000309849086012E0002104F1080004F0D5
:104E6000D1F805460BE0002104F1280004F07CF99C
:104E7000054604E003E002E001E0012500BF00BFB9
:104E80005DB98C482C30006820F0E060D4F8A810A0
:104E9000084388492C31086000E0A8464FF00073B1
:104EA000D4E900101940002059404040014328D166
:104EB000E06CA8B1102804D0202809D0302810D1E7
:104EC0000DE07C48006840F400307A4908600AE050
:104ED000022104F1080004F095F8054603E002E021
:104EE00001E0012500BF00BF55B9724820300068BD
:104EF00020F03000E16C08436E492031086000E08A
:104F0000A8464FF48053D4E90010194000205940BE
:104F10004040014337D1E06DB0F5005F1AD004DCAA
:104F200050B1B0F5805F1ED10DE0B0F5405F18D0F4
:104F3000B0F5804F17D115E05E48006840F40030AE
:104F40005C49086011E0002104F1080004F05AF8FF
:104F500005460AE0002104F1280004F005F90546A1
:104F600003E002E001E0012500BF00BF55B9514850
:104F70002430006820F4E040E16D08434D492431BD
:104F8000086000E0A8464FF40053D4E9001019402F
:104F9000002059404040014335D1206EB0F5403FDC
:104FA0001ED007DC68B1B0F5803F0BD0B0F5003FF4
:104FB00019D10EE0B0F5802F13D0B0F5A02F12D18B
:104FC00010E012E0012104F1080004F01BF805468E
:104FD0000BE0012104F1280004F0C6F8054604E0C6
:104FE00003E002E001E0012500BF00BF55B93148F0
:104FF0002430006820F4E020216E08432D4924313C
:10500000086000E0A8464FF48042D4E90001104057
:105010000021134658404940084337D1D4F8AC002A
:10502000B0F1405F1ED007DC68B1B0F1805F0BD0FB
:10503000B0F1005F19D10EE0B0F1804F13D0B0F1A4
:10504000A04F12D110E012E0012104F1080003F09A
:10505000D9FF05460BE0012104F1280004F084F893
:10506000054604E003E002E001E0012500BF00BFC7
:105070005DB910482C30006820F0E040D4F8AC1046
:1050800008430C492C31086000E0A8464FF4004367
:10509000D4E90001184000215840494008432AD172
:1050A000E06EB8B1B0F1805F06D0B0F1005F12D110
:1050B00009E000002C440258F948006840F4003030
:1050C000F749086009E0012104F1080003F09AFFA4
:1050D000054602E001E0012500BF00BF55B9F048D8
:1050E0002430006820F04050E16E0843EC49243140
:1050F000086000E0A8464FF08073D4E90010194022
:10510000002059404040014328D1A06CA8B101289B
:1051100004D0022809D0032810D10DE0E04800682F
:1051200040F40030DE4908600AE0022104F1080082
:1051300003F068FF054603E002E001E0012500BF3F
:1051400000BF55B9D6482030006820F00300A16C9C
:105150000843D3492031086000E0A8464FF480039B
:10516000D4E90010194000205940404001437DD14E
:10517000CC48006840F48070CA490860FEF724FB00
:10518000064606E0FEF720FB801B642801D90325B4
:1051900005E0C448006800F480700028F2D000BF29
:1051A00085BBBF484430006800F44070B4F8B010CC
:1051B00001F44071884213D0B9484430006820F4AB
:1051C0004077B7484430006840F48030B4494431F7
:1051D00008600846006820F48030086008460760D0
:1051E000D4F8B000B0F5807F15D1FEF7EDFA064691
:1051F00009E0FEF7E9FA801B41F28831884202D9C2
:10520000032507E038E0A64844300068C0F34000BA
:105210000028EED000BF55BB00BFB4F8B00000F4CA
:105220004070B0F5407F0ED19D481C38006820F4D6
:105230007C519D4AD4F8B000104041EA10109849C2
:105240001C39086007E096481C38006820F47C5040
:1052500093491C390860924844300068B4F8B01093
:10526000C1F30B0108438E49443101E005E001E040
:10527000086002E0A84600E0A8460122D4E9000147
:1052800010400021134658404940084330D1A06FD8
:1052900018281AD005DC48B1082808D0102817D1E2
:1052A0000CE0202812D0282812D110E012E00121B1
:1052B00004F1080003F0A6FE05460BE0012104F10D
:1052C000280003F051FF054604E003E002E001E09E
:1052D000012500BF00BF55B971482830006820F093
:1052E0003800A16F08436E492831086000E0A846E5
:1052F0000223D4E9001019400020594040400143E6
:1053000029D1606F062816D2DFE800F003040B12E3
:10531000131412E0012104F1080003F073FE0546A6
:105320000BE0012104F1280003F01EFF054604E014
:1053300003E002E001E0012500BF00BF55B9584875
:105340002830006820F00700616F08435449283175
:10535000086000E0A8460422D4E9001011400020B3
:1053600013465940404001432BD1D4F89000062801
:1053700016D2DFE800F003040B12131412E001212F
:1053800004F1080003F03EFE05460BE0012104F1A4
:10539000280003F0E9FE054604E003E002E001E036
:1053A000012500BF00BF5DB93D482C30006820F0EA
:1053B0000700D4F89010084339492C31086000E008
:1053C000A8462023D4E90001184000215840494054
:1053D000084337D1D4F88C00B0F1405F1ED007DC11
:1053E00068B1B0F1805F0BD0B0F1005F19D10EE071
:1053F000B0F1804F13D0B0F1A04F12D110E012E005
:10540000002104F1080003F0FDFD05460BE0022138
:1054100004F1280003F0A8FE054604E003E002E0E2
:1054200001E0012500BF00BF5DB91D4828300068BC
:1054300020F0E040D4F88C10084319492831086066
:1054400000E0A8464023D4E900101940002059404C
:10545000404001433CD1D4F89800B0F5406F25D0CE
:1054600007DC68B1B0F5806F0BD0B0F5006F20D1CC
:105470000EE0B0F5805F1AD0B0F5A05F19D117E04B
:1054800019E0002104F1080003F0BCFD054612E01C
:10549000022104F1280003F067FE05460BE000003E
:1054A0002C44025800480258FFFCFF0F03E002E0C2
:1054B00001E0012500BF00BF4DB9FE48006820F49F
:1054C000E050D4F898100843FA49086000E0A84674
:1054D0008023D4E900101940002059404040014386
:1054E00035D1D4F89C00B0F5C04F1ED007DC68B1B0
:1054F000B0F5005F0BD0B0F5804F19D10EE0B0F5DC
:10550000004F13D0B0F5204F12D110E012E000216F
:1055100004F1080003F076FD05460BE0022104F1DA
:10552000280003F021FE054604E003E002E001E06C
:10553000012500BF00BF4DB9DE48006820F460407F
:10554000D4F89C100843DB49086000E0A846082313
:10555000D4E900011840002158404940084317D1C0
:10556000D4F88000B0F5805F07D1022104F1280053
:1055700003F0FAFD08B14FF00108CE48001F0068A3
:1055800020F44050D4F880100843CA49091F08602D
:105590001023D4E900011840002158404940084335
:1055A00015D1D4F89400B0F5807F07D1022104F121
:1055B000280003F0D9FD08B14FF00108BD4800688C
:1055C00020F44070D4F894100843BA4908604FF4AE
:1055D0000023D4E900011840002158404940084305
:1055E00027D1D4F8A00030B1B0F5803F0AD0B0F593
:1055F000003F0FD10DE0002104F1080003F002FD8F
:10560000054609E0022104F1280003F0ADFD05463E
:1056100002E001E0012500BF00BF4DB9A5480068C8
:1056200020F44030D4F8A0100843A249086000E0FC
:10563000A8464FF48023D4E90001184000215840C7
:10564000494008432DD1D4F88400B0F5801F06D01E
:10565000B0F5001F0CD0B0F5401F11D10FE09548F8
:105660002C38006840F4003092492C39086009E079
:10567000012104F1280003F077FD054602E001E076
:10568000012500BF00BF5DB98A48001F006820F4F3
:105690004010D4F8841008438649091F086000E0D0
:1056A000A8464FF48032D4E900011040002113468F
:1056B00058404940084325D1206D18B1B0F5803FCE
:1056C00010D108E07B482C38006840F4003079495C
:1056D0002C39086008E0022104F1080003F092FC74
:1056E000054601E0012500BF00BF55B971480C38DF
:1056F000006820F48030216D08436E490C39086041
:1057000000E0A8464FF00053D4E9001019400020F3
:1057100059404040014307D1022104F1280003F021
:1057200023FD08B14FF001084FF40032D4E9000125
:1057300010400021134658404940084327D1E06FEC
:10574000A0B1B0F5807F06D0B0F5007F0CD0B0F5E9
:10575000407F0CD109E057482C38006840F40030F5
:1057600054492C39086004E003E002E001E001251F
:1057700000BF00BF55B94F48001F006820F44070BB
:10578000E16F08434B49091F086000E0A8464FF449
:105790008012D4E9001011400020134659404040C7
:1057A000014309D143480838006820F00040216FC8
:1057B00008434049083908604FF40013D4E9000158
:1057C0001840002158404940084309D13948083859
:1057D000006820F08070A16E0843364908390860DF
:1057E0004FF08043D4E90010194000205940404058
:1057F000014311D100BF2F484838006820F4004011
:105800002C494839086008460068D4F8B4100843A9
:1058100028494839086000BF4FF00042D4E9000130
:1058200010400021134658404940084309D12148FF
:105830000C38006820F04050616D08431D490C3958
:1058400008604FF40002D4E9001011400020134614
:105850005940404001430AD11648001F006820F417
:105860004000D4F8881008431249091F086001223B
:1058700000216068104049405040014306D104F1C6
:10588000080003F0BFFB054605B1A846022200212F
:105890006068104049405040014307D1012104F1A4
:1058A000080003F0AFFB054605B1A846042300201D
:1058B000616801E0584402581940042240405140B8
:1058C000084307D1022104F1080003F09BFB0546C1
:1058D00005B1A8460823002061681940082240400D
:1058E0005140084307D1002104F1280003F03CFC9B
:1058F000054605B1A8461023002061681940102212
:1059000040405140084307D1012104F1280003F031
:105910002BFC054605B1A8462022002160681040F6
:1059200049405040014307D1022104F1280003F00F
:105930001BFC054605B1A846B8F1000F02D10020B6
:10594000BDE8F0810120FBE72DE9F04104460D465A
:1059500014B90120BDE8F081BD48006800F00F00D7
:10596000A8420ED2BA48006820F00F002843B84978
:1059700008600846006800F00F00A84201D001202E
:10598000E8E7207800F0040004280ED1B14920692E
:10599000096801F07001884207D9AE48006820F01C
:1059A000700021690843AB490860207800F00800C6
:1059B000082811D1A749091D6069096801F0700123
:1059C000884209D9A348001D006820F07000616971
:1059D0000843A049091D0860207800F01000102835
:1059E00011D19C49091DA069096801F4E061884250
:1059F00009D99848001D006820F4E060A1690843B7
:105A00009449091D0860207800F02000202811D159
:105A100090490831E069096801F07001884209D9AC
:105A20008C480830006820F07000E169084389491B
:105A300008310860207800F0020002280ED1854964
:105A4000E068096801F00F01884207D981480068C1
:105A500020F00F00E16808437E490860207800F0DC
:105A60000100002850D07B48006820F47060A168D5
:105A70000843784908606068022807D175481838DB
:105A80000068C0F34040F8B9012063E7606803286C
:105A900007D1704818380068C0F34060A0B90120F1
:105AA00058E76068012807D16A4818380068C0F3D1
:105AB000002048B901204DE7664818380068C0F357
:105AC000800008B9012045E762480838006820F0E6
:105AD0000700616808435F4908390860FDF774FEF4
